S01800006275696C642F6D6963617A2F6D61696E2E73726563E5
S11300000C9476000C94B50B0C94BF0B0C94C90B98
S11300100C94D30B0C94DD0B0C94E70B0C9451143F
S11300200C94F10B0C9495000C9495000C944A20BC
S11300300C94E8210C94190C0C942F0C0C94CB0CFC
S11300400C94900A0C94E41F0C94A40A0C9495004C
S11300500C94E80A0C944E0D0C9495000C949500A5
S11300600C94240C0C946B0B0C944A0B0C94550BB1
S11300700C94600B0C947E0B0C942D0B0C9495003B
S11300800C943F0B0C945F240C949500A025D5256B
S1130090D825132625266026632669266C266F2616
S11300A08E26912694269726D427F527312834289E
S11300B03A2880289928AB28AF28B728D028D328F5
S11300C0D628D928DC28DF28E228E528E8283E2994
S11300D045299829B429BA29BD29332A562A6B2AD5
S11300E0F72B082C0B2C00081C18141011241FBE0D
S11300F0CFEFD0E1DEBFCDBF11E0A0E0B1E0EAE593
S1130100FAE600E00BBF02C007900D92AC36B107CF
S1130110D9F713E0ACE6B1E001C01D92A539B107EF
S1130120E1F70E94402C0C942C350C9400008FB7FE
S1130130F894992708958FBF089590916D0399239A
S113014039F160916C0140E051E0892F8523A1F0E1
S1130150E42FFF27EE0FFF1FEF57FD4F2081318162
S113016011821082852F80959823442329F42D50E1
S1130170324039F460E005C04F5F483028F4550F31
S1130180E4CF550F41E0E1CF90936D0360936C0190
S11301900895FC0182819927582F4427818199274A
S11301A0482B592BCA01892F9927869586958370E8
S11301B090708230910559F08330910559F0892B64
S11301C019F420E030E008C02CE93FEF05C022E03C
S11301D030E002C028E030E0CA0184E0989F812D1D
S11301E0992711248230910559F08330910559F0F3
S11301F0892B19F480E090E008C08CE99FEF05C0DA
S113020082E090E002C088E090E0280F391F2A5F66
S11302103F4FCF01820F931F0895282F9FB7F89463
S1130220662349F0E82FFF27EC52FD4F8081882395
S113023011F021E006C0E22FFF27EC52FD4F60834E
S113024020E0892F99278FBF822F99270895E82FBF
S11302508FB7F894282F332790E0FF27EC52FD4FF7
S11302608081861709F491E02FBF892F992708957B
S1130270682F81E00E94270199270895882311F0AF
S11302806E9A08956E980895882311F06F9A0895D0
S11302906F98089580E00E943E01BA9ABB98B99A7B
S11302A0B89A6C9A80E00E9444016B986A9881E045
S11302B00E943E01709A8DB18C7F8DB908950F9381
S11302C01F93CF93DF93182F8FB7F894C82FDD2790
S11302D00C2F61E080E00E940D01882321F0CFBF44
S11302E085E090E024C0809155018823A1F4809199
S11302F08D01823081F409C082E080938D011092D7
S113030055010E944A01B89AC0981093520180E0A6
S11303100FBF99270CC080918D01882369F38FB793
S1130320F89499271092D4028FBF81E0F1CFDF9126
S1130330CF911F910F910895282F9FB7F894E82F1C
S1130340FF27EE53FE4F80818F3F81F4E0918603B7
S1130350E21771F40BC020935B0304C0FF27EE5334
S1130360FE4F20832093860320E007C025E005C0CC
S113037080915B038F3F91F7EECF892F99278FBF31
S1130380822F992708958DE00E949C019927089552
S113039084E10E949C019927089584E20E949C01B3
S11303A09927089585E20E949C019927089586E281
S11303B00E949C01992708951F93182F81E00E94A1
S11303C03E011FB9779BFECF8FB199271F910895E6
S11303D08F929F92AF92BF92CF92DF92EF92FF9251
S11303E00F931F93CF93DF938FB7F8949927C090FF
S11303F07503D09076038090C8029090C902C09192
S11304007F02D09180022091A0013091A101EAE005
S1130410AE2EB12CAC0EBD1E2A153B0508F45901B5
S11304208FBF7401EC0EFD1E86010C0F1D1F14C03E
S1130430C114D10419F0F801808101C080E00E9448
S1130440DC018114910411F0F70180832196089452
S1130450E11CF11C0F5F1F4FC5010197C817D90795
S113046038F381E00E9444019FB7F894C114D10489
S113047031F0CC0EDD1EF60180818FB901C01FB8AA
S1130480D0938002C0937F02892F99278FBF80E089
S113049090E0DF91CF911F910F91FF90EF90DF904B
S11304A0CF90BF90AF909F908F9008952FB7F894FE
S11304B033275093A1014093A00190937603809336
S11304C075037093C9026093C8021092800210925F
S11304D07F022FBF452B29F08FB10E94E801992795
S11304E0089587E20E949C0180E090E008958FB710
S11304F0F89499271092D6028FBF089580E88093CC
S1130500BE011092410210925E0310925A0310929F
S1130510FF010895CF93DF93FC0115A6DC019E969D
S1130520ED011B821A82198280E886A7DF91CF91A0
S113053008952F923F924F925F926F927F928F9283
S11305409F92AF92BF92CF92DF92EF92FF920F935E
S11305501F93CF93DF93CDB7DEB728970FB6F894E8
S1130560DEBF0FBECDBF20905502309056024090A2
S1130570570250905802662477248824BEE4AB2E98
S1130580A3E8BA2ECC24DD24EE24FF2400E010E0FE
S1130590222D332D442D552D662D772D882D90E059
S11305A00E948F2E29833A834B835C836D837E83E1
S11305B08F839887822E932EA42EB52E2401350185
S11305C000E20E948D2FA22EB32EC42ED52EC3017D
S11305D0B20196958795779567956A0D7B1D8C1D5D
S11305E09D1D97FF05C09F776F5F7F4F8F4F9F4F74
S11305F06093550270935602809357029093580269
S113060028960FB6F894DEBF0FBECDBFDF91CF9111
S11306101F910F91FF90EF90DF90CF90BF90AF901C
S11306209F908F907F906F905F904F903F902F900E
S113063008958FB7F89460915A0270915B022CB5BB
S11306403DB506B602FE04C06F5F7F4F2CB53DB5C5
S113065099278FBF88279927CB01772766274427B7
S11306605527622B732B842B952B0895EF92FF92C1
S11306700F931F930E9419037B018C012091630245
S113068030916402409165025091660280915C024F
S113069090915D02A0915E02B0915F02820F931F60
S11306A0A41FB51FE216F3060407150730F08217DE
S11306B09307A407B50758F005C082179307A4074A
S11306C0B507E0F5E816F9060A071B07B8F59C011B
S11306D0AD012E193F09400B510B213060E836075C
S11306E060E0460760E0560768F180E090E8A0E02B
S11306F0B0E0E80EF91E0A1F1B1FE0926302F0929D
S11307006402009365021093660280E090E8AFEF04
S1130710BFEFE80EF91E0A1F1B1F2050304840404F
S1130720504020935C0230935D0240935E025093EC
S11307305F0220E030E840E050E014C020E030E008
S113074040E050E08093630290936402A0936502BA
S1130750B093660210925C0210925D0210925E02E7
S113076010925F02A901B7012CB53DB5C9018E19DC
S11307709F0903968417950720F0B9016D5F7F4F99
S113078002C0640F751F6115710511F461E070E01A
S1130790615070407BBD6ABD80E186BF87B78061D0
S11307A087BF1F910F91FF90EF9008950F931F93B0
S11307B00FB7F894112760936302709364028093D7
S11307C065029093660220935C0230935D0240932D
S11307D05E0250935F020E9436030FBF1F910F9178
S11307E00895CF92DF92EF92FF920F931F93CF93CE
S11307F0DF938C01F62E6A01E22E8FB7F894C82F8E
S1130800DD2760E080E00E942701882321F0CFBF2C
S113081080E090E01EC0CFBF0F0D111D802F8068B7
S11308200E94DC01F82E16950795802F807C0E948B
S1130830DC010E2D0AC0EE2DFF27E01BF109EC0DA3
S1130840FD1D80810E94DC0101500023A1F78F2D42
S11308509927DF91CF911F910F91FF90EF90DF9037
S1130860CF90089597B79F7D97BF90E296BF882356
S113087019F08EB5806402C08EB58F7B8EBD87B7AC
S1130880806287BF80E090E0089581E00E94320496
S1130890992708957FB7F89462B72091A501309104
S11308A0A6014091A7015091A80106B601FE0FC010
S11308B081B792B7280F311D411D511D2F5F3F4F46
S11308C04F4F5F4F290F311D411D511D04C0260F8D
S11308D0311D411D511D872F99278FBFCA01B901B1
S11308E00895782F522FBFB7F8948091FB018E7F23
S11308F08093FB0187B1A82FAF71262F33278295F0
S113090086958695837099272817390719F020E072
S113091030E013C0872F8850863118F021E030E092
S11309200CC0E0E0F0E0272F33278A2F99272817FF
S1130930390711F4E1E0F0E09F01E22FE1702E2F7E
S1130940220F8091FB018178372F3F71932F990FEC
S1130950990F822B892B8093FB0141704295440FA0
S1130960407E40726295660F660F607C432B462B77
S1130970842F992787B9583061F580915C03909151
S11309805D0321E08638920718F027E030E020C0AC
S1130990833C910518F026E030E01AC081369105B9
S11309A018F025E030E014C08033910518F024E0FD
S11309B030E00EC08831910518F023E030E008C023
S11309C08C30910518F022E030E002C020E030E0E5
S11309D0522F5770887D852B886D992786B98B2F68
S11309E099278FBF8E2F992708952FB7F89433270F
S11309F08091E3028093510183E0809387012FBFAC
S1130A0080915101882381F480910503813031F470
S1130A1028E040E060E00E947104089528E040E08E
S1130A2060E082E00E9471040895CF93DF93982FD1
S1130A308FB7F894282F3327422F8091740188238D
S1130A4021F581E08093740190934D022FBF8FB7FD
S1130A50F894C82FDD279C2F80914101843099F4AC
S1130A6080917401813021F487E00E949C0109C0C7
S1130A70823049F480914D028093410183E0809358
S1130A807401CFBF07C09FBF05C080914D02891775
S1130A9021F42FBF80E090E021C0E92FFF27E75920
S1130AA0FC4F80818F3F89F4E0914001E91789F47C
S1130AB00CC090933F0104C0FF27E759FC4F90837B
S1130AC09093400180E090E002C085E090E04FBF49
S1130AD005C080913F018F3F79F7EBCFDF91CF9134
S1130AE0089580E00E9415059927089581E00E94E9
S1130AF015059927089581E08093820183E00E947F
S1130B00150599270895982F969596959695E8E852
S1130B10F2E0E90FF11D877021E030E002C0220FFE
S1130B20331F8A95E2F780818223992708950F93D2
S1130B301F93CF93DF93182F8FB7F894282F332761
S1130B40022F80918701882359F581E080938701E2
S1130B501093E3022FBF8FB7F8949927379A8FBF6A
S1130B608FB7F894C82FDD279C2F809151018130D5
S1130B70A9F480918701813021F48FE10E949C01C6
S1130B8009C0823059F48091E3028093510183E0DB
S1130B9080938701CFBF80E090E025C09FBFFBCF4B
S1130BA08091E302811711F42FBFF5CF812F0E94AA
S1130BB08305882319F085E090E014C0E12FE695C1
S1130BC0E695E695FF27E857FD4F177081E090E022
S1130BD002C0880F991F1A95E2F72081282B2083E1
S1130BE080E090E00FBFDF91CF911F910F910895A6
S1130BF01F93982F8FB7F894182F80918301833017
S1130C00D1F5809150018917B1F580914E0120E012
S1130C1030E08F3F11F421E030E0232BE9F48F3FE3
S1130C2019F42FEF30E00EC0282F3327F901E350D9
S1130C30FE4F808180934E018F3F11F480934F01CA
S1130C408FEF808320939D018FEF8093500181E08B
S1130C50809383018CE109C082E08093500110925B
S1130C60830181E0809384018EE10E949C011FBF77
S1130C7080E090E003C01FBF81E090E01F910895E1
S1130C808FB7F8949927209174002093CA028FBFDC
S1130C9008951F93CF93DF93982F8FB7F894282F3D
S1130CA03327422F80917501882309F044C011E055
S1130CB0109375019093F1012FBF8FB7F894C82F4B
S1130CC0DD27809176018823B9F488988998109259
S1130CD0710081E48093700010927200109274008D
S1130CE00E9440068091CA0284608E7F8093CA026B
S1130CF08093740010937601CFBF8FB7F894C82FF8
S1130D00DD279C2F80914401843099F480917501F2
S1130D10813021F48AE00E949C0109C0823049F4A8
S1130D208091F1018093440183E080937501CFBFEA
S1130D3007C09FBF05C08091F101891721F42FBF1F
S1130D4080E090E021C0E92FFF27E95FFD4F80811B
S1130D508F3F89F4E0914301E91789F40CC0909323
S1130D60420104C0FF27E95FFD4F90839093430144
S1130D7080E090E002C085E090E04FBF05C0809124
S1130D8042018F3F79F7EBCFDF91CF911F91089507
S1130D904FB7F89420917F01222319F421E030E029
S1130DA00FC080914D01823019F020E030E008C07E
S1130DB080E090E02150223010F481E090E09C012A
S1130DC0842F99278FBF822F99270895CF93DF937C
S1130DD08FB7F894C82FDD279C2F80914D01823066
S1130DE0A9F480917F01813021F487E10E949C0164
S1130DF009C0823059F48091B90180934D0183E098
S1130E0080937F01CFBF80E090E003C09FBF81E06B
S1130E1090E0DF91CF9108950E94C806882311F0D5
S1130E200E94E60608950F931F930FB7F8941127B5
S1130E300E9440068091CA028E7F80698093CA0214
S1130E40809374000FBF1F910F9108951F93982FE3
S1130E508FB7F894182F80917B018330C9F5809166
S1130E6049018917A9F58091470120E030E08F3FBF
S1130E7011F421E030E0232BE9F48F3F19F42FEF34
S1130E8030E00EC0282F3327F901E154FE4F808152
S1130E90809347018F3F11F4809348018FEF808343
S1130EA0209387028FEF8093490181E080937B0137
S1130EB08FE008C081E08093490110927B01809308
S1130EC07C0181E10E949C011FBF80E090E003C08F
S1130ED01FBF81E090E01F91089580E00E942607E3
S1130EE09927089500000000959A00000000959845
S1130EF00895882311F0939A01C093980E94720771
S1130F000895000040E050E02FE030E09398959A77
S1130F100000000080B3959899279695879596953B
S1130F20879581709070022E02C0880F991F0A94D1
S1130F30E2F7480F591F215030408FEF2F3F3807F9
S1130F4029F7CA0108954FB7F89420918301222309
S1130F5019F421E030E00FC080915001823019F083
S1130F6020E030E008C080E090E02150223010F40E
S1130F7081E090E09C01842F99278FBF822F9927CD
S1130F800895982F8150883018F082E090E00895F9
S1130F9080917203882319F085E090E0089581E040
S1130FA0809372038093A4019093CC02892F992794
S1130FB0019721E030E002C0220F331F8A95E2F747
S1130FC080916002822B8093600280E00E94490637
S1130FD080E090E008954FB7F894209171012223A6
S1130FE019F421E030E00FC080913E01823019F005
S1130FF020E030E008C080E090E02150223010F47E
S113100081E090E09C01842F99278FBF822F99273C
S113101008954FB7F89420917B01222319F421E01D
S113102030E00FC080914901813019F020E030E0B8
S113103008C080E090E02150223010F481E090E07C
S11310409C01842F99278FBF822F99270895982F69
S11310508150883018F082E090E008958091420237
S1131060882319F085E090E0089581E0809342029E
S113107080937B029093F102892F9927019721E0B5
S113108030E002C0220F331F8A95E2F7809180037B
S113109082278093800381E00E94490680E090E0EB
S11310A0089590E087FF02C01F9A01C01F98AB9A71
S11310B0AB989F5F983011F0880FF4CF089517987C
S11310C01F9AAB9A0F9B03C081E090E00895AB9800
S11310D080E090E008952FB7F89499B79F7799BF6F
S11310E090E898BF9AB790689ABF882319F08AB796
S11310F0806402C08AB78F7B8ABF89B7806889BF42
S1131100822F99278FBF80E090E0089580E020E04F
S1131110AB9A0F998160273031F0880FAB982F5F1D
S1131120283011F0F5CFAB98179A1F98AB9AAB986B
S113113017981F9A99270895179A1F9AAB9AAB98F4
S113114008951F93982F8FB7F894182F80917101E9
S11311508330D1F580913E018917B1F580913C012E
S113116020E030E08F3F11F421E030E0232BE9F45C
S11311708F3F19F42FEF30E00EC0282F3327F901E9
S1131180EF59FD4F808180933C018F3F11F4809390
S11311903D018FEF80832093ED028FEF80933E011A
S11311A081E08093710184E009C082E080933E0174
S11311B01092710181E08093720186E00E949C018B
S11311C01FBF80E090E003C01FBF81E090E01F914B
S11311D0089581E00E94A108992708958FB7F89493
S11311E099272BB334E023272BBB8FBF0895982F67
S11311F08FB7F894282F3327422F809171018823C9
S113120089F441E0409371019093ED022FBF8091E6
S11312107201882321F485E00E949C0108C0409358
S1131220730105C08091ED02891721F42FBF80E07E
S113123090E00895E92FFF27EF59FD4F80818F3FFC
S113124089F4E0913D01E91789F40CC090933C01C5
S113125004C0FF27EF59FD4F908390933D0180E038
S113126090E002C085E090E04FBF089580913C017A
S11312708F3F79F7EBCF982F8FB7F894282F332728
S1131280422F80918301882389F441E040938301B4
S113129090939D012FBF80918401882321F48DE1D7
S11312A00E949C0108C04093850105C080919D0166
S11312B0891721F42FBF80E090E00895E92FFF27DC
S11312C0E350FE4F80818F3F89F4E0914F01E9178D
S11312D089F40CC090934E0104C0FF27E350FE4FE5
S11312E0908390934F0180E090E002C085E090E00D
S11312F04FBF089580914E018F3F79F7EBCF982F20
S11313008FB7F894282F3327422F80917F018823A9
S113131089F441E040937F019093B9012FBF8091FC
S11313208001882321F488E10E949C0108C0409335
S1131330810105C08091B901891721F42FBF80E094
S113134090E00895E92FFF27ED59FC4F80818F3FEE
S113135089F4E0914C01E91789F40CC090934B0196
S113136004C0FF27ED59FC4F908390934C0180E01B
S113137090E002C085E090E04FBF089580914B015A
S11313808F3F79F7EBCFDF92EF92FF920F931F938A
S11313908FB7F894282F3327D22E91B782B746B748
S11313A0981711F041FF02C02FBF6AC080917E02DE
S11313B08823E1F10E944A04E090D002F090D10227
S11313C00091D2021091D3022091BA013091BB0155
S11313D04091BC015091BD016E197F09800B910BA6
S11313E0621773078407950720F010927E0271E05C
S11313F01EC02E0D3F1D401F511F8091A5019091CD
S1131400A601A091A701B091A801281B390B4A0B92
S11314105B0B273E31054105510540F4822F2230F4
S113142010F070E005C070E082E002C070E086EE6B
S1131430682F615000B601FCFDCF82B7681709F42C
S11314406F5F2091A5013091A6014091A7015091B1
S1131450A801DA01C9010196A11DB11D860F911DD4
S1131460A11DB11D82179307A407B50710F4622FBD
S1131470609561BFDFBE772319F080E00E949C0174
S11314801F910F91FF90EF90DF900895AFB7F894FC
S1131490BB27E1E0E0937E026093D0027093D10217
S11314A08093D2029093D3022093BA013093BB016C
S11314B04093BC015093BD01AFBF0E94C30908957E
S11314C0AF92BF92CF92DF92EF92FF920F931F934E
S11314D0CF93DF93CDB7DEB728970FB6F894DEBF6E
S11314E00FBECDBF20E070E0E0913901F0913A01E8
S11314F032E14DE65CE46FE480913A019E2F289638
S11315000FB6F894DEBF0FBECDBFDF91CF911F9110
S11315100F91FF90EF90DF90CF90BF90AF90089520
S11315201F920F920FB60F9211248F9383B783BF2C
S113153000B600FCFDCF8F910F900FBE0F901F904F
S1131540189580E090E008951F920F920FB60F92C5
S113155011242F933F938F939F93EF93FF935F9B5C
S113156025C02CB1E0918502F09186023097F1F00C
S11315708091790390917A03E80FF91F20830196F3
S113158090937A03809379032091890330918A039D
S11315908217930758F01092860210928502809168
S11315A0CB02833019F057981092CB02FF91EF9140
S11315B09F918F913F912F910F900FBE0F901F908D
S11315C018952FB7F89433278CB95E9A2FBF0895D6
S11315D078941F920F920FB60F9211242F933F937A
S11315E04F935F936F937F938F939F93AF93BF9327
S11315F0EF93FF9320914402309145028091F902C8
S11316009091FA022817390780F4E0916F02F09163
S11316107002E20FF31F80812F5F3F4F309345022A
S1131620209344020E94E10A07C0109270021092B3
S11316306F02109246025698FF91EF91BF91AF91BD
S11316409F918F917F916F915F914F913F912F91D6
S11316500F900FBE0F901F9018951F920F920FB608
S11316600F9211248F9380919B0087FF02C0809179
S11316709C008F910F900FBE0F901F901895789437
S11316801F920F920FB60F9211240F900FBE0F905E
S11316901F90189578941F920F920FB60F921124F1
S11316A00F900FBE0F901F90189578941F920F9271
S11316B00FB60F9211240F900FBE0F901F90189524
S11316C078941F920F920FB60F9211240F900FBEB1
S11316D00F901F90189578941F920F920FB60F9247
S11316E011248F939F9380918000909181009F910A
S11316F08F910F900FBE0F901F90189578941F92A2
S11317000F920FB60F9211242F933F938F939F93B1
S11317102FB7F89433278091830290918402019625
S113172090938402809383022FBF9F918F913F9166
S11317302F910F900FBE0F901F901895CF93DF93AA
S1131740982F80914602882319F0CFEFDFEF09C06C
S1131750C92FDD27C7FDD0958C2F0E94E10A5E9B1F
S1131760FECFCE01DF91CF9108951F920F920FB655
S11317700F9211240F900FBE0F901F9018951F9277
S11317800F920FB60F9211240F900FBE0F901F905F
S113179018951F920F920FB60F9211240F900FBE3F
S11317A00F901F9018951F920F920FB60F9211244D
S11317B00F900FBE0F901F9018951F920F920FB6A7
S11317C00F9211240F900FBE0F901F9018951F9227
S11317D00F920FB60F9211240F900FBE0F901F900F
S11317E018951F920F920FB60F9211242F933F93C7
S11317F04F935F936F937F938F939F93AF93BF9315
S1131800EF93FF9389B78F7789BF82E00E949C0191
S1131810FF91EF91BF91AF919F918F917F916F91C4
S11318205F914F913F912F910F900FBE0F901F909A
S1131830189578941F920F920FB60F9211240F905F
S11318400FBE0F901F90189578941F920F920FB6A9
S11318500F9211240F900FBE0F901F90189578943B
S11318601F920F920FB60F9211242F933F938F93D1
S11318709F932FB7F894332780915A0290915B027B
S1131880019690935B0280935A022FBF9F918F9190
S11318903F912F910F900FBE0F901F9018958823A2
S11318A029F47093840360938303089580E091E0A6
S11318B00E9468320E94EE080895CF93DF93EB01F3
S11318C0882341F5BE01882777FD8095982F0E94D3
S11318D0A330D7FF06C020E030E040E857E40E9480
S11318E0113020E030E040E859E30E942F3120E03D
S11318F030E040E250E40E942F3120E030E543EC38
S113190055E40E942F310E9475307093CE0260938B
S1131910CD0206C080E091E00E9468320E94EE0889
S1131920DF91CF910895CF93DF93CDB7DEB72C9796
S11319300FB6F894DEBF0FBECDBF8FB7F894282F33
S1131940AE014F5F5F4FDA01E5EEF2E088E001900F
S11319500D928150E1F78091470290914802898766
S1131960892F99278A8780916702909168028B87D3
S1131970892F99278C872FBF2CE060E080E691E0C7
S11319800E94F1032C960FB6F894DEBF0FBECDBFB4
S1131990DF91CF9108951F920F920FB60F921124E9
S11319A02F933F934F935F936F937F938F939F9363
S11319B0AF93BF93EF93FF9383B783BF00B600FC4D
S11319C0FDCF81B799270196AA27BB272091A501AE
S11319D03091A6014091A7015091A801280F391F09
S11319E04A1F5B1F2093A5013093A6014093A701D2
S11319F05093A80178940E94C309FF91EF91BF917D
S1131A00AF919F918F917F916F915F914F913F9192
S1131A102F910F900FBE0F901F901895CF93DF93C7
S1131A208FB7F894C82FDD279C2F8091490181300E
S1131A30A9F480917B01813021F48FE00E949C0104
S1131A4009C0823059F4809187028093490183E070
S1131A5080937B01CFBF80E090E003C09FBF81E013
S1131A6090E0DF91CF91089582E08093820183E03A
S1131A700E9415059927089580918501813029F4E4
S1131A808093820183E00E9415058FB7F89499270B
S1131A9010928501109284018FBF08951F920F92B6
S1131AA00FB60F921124AF92BF92DF92EF92FF9282
S1131AB00F931F932F933F934F935F936F937F9352
S1131AC08F939F93AF93BF93CF93DF93EF93FF9342
S1131AD0A4B0B5B078948FB7F89499272091FB01FE
S1131AE0E22EE69431E0E32221708FBF222309F035
S1131AF058C033988FB7F894D82E809187018330DB
S1131B0009F040C0809151018823E1F58091880259
S1131B10882309F074C06CC0EF2DE695E695E69530
S1131B20FF274F2D5527E857FD4F9A012770307036
S1131B3081E090E002C0880F991F2A95E2F7809512
S1131B40208128232083C093860111C02196C130AF
S1131B50D10511F4C0E0D0E0FC2E8C2F0E94830547
S1131B608823D1F6C017D10789F74FEF50E040938F
S1131B70E3028FEF8093510181E0809387018FE12D
S1131B800E949C01DFBEEE2041F08FB7F8949927A4
S1131B90A09273038FBF8AE101C08BE10E949C0174
S1131BA034C08FB7F89499278FBF2FB7F894332791
S1131BB086B1582F5770482F4072987D942B952BDF
S1131BC08074977B982B90619F77892F992786B98A
S1131BD0887D842B852B87738061992786B9887DBE
S1131BE0842B852B877B8069992786B92FBF0DC0ED
S1131BF081E080935101109287013798C3CF80917F
S1131C008601082F1127E801A1CFFF91EF91DF9101
S1131C10CF91BF91AF919F918F917F916F915F9180
S1131C204F913F912F911F910F91FF90EF90DF9073
S1131C30BF90AF900F900FBE0F901F9018951F93F9
S1131C40982F8FB7F894182F80917F018330D1F5A6
S1131C5080914D018917B1F580914B0120E030E06E
S1131C608F3F11F421E030E0232BE9F48F3F19F486
S1131C702FEF30E00EC0282F3327F901ED59FC4F28
S1131C80808180934B018F3F11F480934C018FEF3F
S1131C9080832093B9018FEF80934D0181E080937D
S1131CA07F0187E109C082E080934D0110927F019A
S1131CB081E08093800189E10E949C011FBF80E044
S1131CC090E003C01FBF81E090E01F91089581E080
S1131CD00E941F0E9927089580E00E941F0E9927E5
S1131CE008951F93982F8FB7F894182F809175013A
S1131CF0833009F048C080914401891709F043C03A
S1131D008091420120E030E08F3F11F421E030E087
S1131D10232BF9F48F3F19F42FEF30E00EC0282F56
S1131D203327F901E95FFD4F8081809342018F3FA2
S1131D3011F4809343018FEF80832093F1018FEF9F
S1131D408093440181E0809375018AE00E949C01A4
S1131D5016C084E08093440110927501809176014D
S1131D60813069F40E9440068091CA028A76809389
S1131D70CA028093740090989198109276011FBFC4
S1131D8080E090E003C01FBF81E090E01F910895C0
S1131D9081E080937A010E94150599270895809126
S1131DA07D01813021F480937A010E9415058FB75B
S1131DB0F894992710927D0110927C018FBF0895A9
S1131DC0CF93DF938FB7F894C82FDD279C2F809192
S1131DD050018230A9F480918301813021F48CE197
S1131DE00E949C0109C0823059F480919D01809326
S1131DF0500183E080938301CFBF80E090E003C073
S1131E009FBF81E090E0DF91CF910895FF920F93FF
S1131E101F93F82E8B0180E00E94A108B8018F2D3A
S1131E200E944F0C1F910F91FF900895FF920F9302
S1131E301F93F82E8B0181E00E94A108B8018F2D19
S1131E400E945D0C1F910F91FF90089581E0809393
S1131E50700180E00E94150599270895CF93DF93C0
S1131E608FB7F894C82FDD279C2F80913E018230D4
S1131E70A9F480917101813021F484E00E949C01D5
S1131E8009C0823059F48091ED0280933E0183E0D1
S1131E9080937101CFBF80E090E003C09FBF81E0D9
S1131EA090E0DF91CF91089582E080937E010E94BB
S1131EB015059927089581E080937E0182E00E94B0
S1131EC01505992708951F93982F8FB7F894182F05
S1131ED0809174018330B1F580914101891791F5A6
S1131EE080913F0120E030E08F3F11F421E030E0A9
S1131EF0232BF9F48F3F19F42FEF30E00EC0282F75
S1131F003327F901E759FC4F808180933F018F3FCC
S1131F1011F4809340018FEF808320934D028FEF63
S1131F208093410181E08093740187E00E949C01C9
S1131F3005C084E080934101109274011FBF80E0CA
S1131F4090E003C01FBF81E090E01F910895982F97
S1131F508150883018F082E090E0089580917203F7
S1131F60882319F085E090E0089581E0809372035E
S1131F70809370039093CC02892F9927019721E0D5
S1131F8030E002C0220F331F8A95E2F7809160028D
S1131F9082278093600280E00E94490680E090E0FE
S1131FA00895982F8150883018F082E090E00895C9
S1131FB080914202882319F085E090E0089581E041
S1131FC080934202809396019093F102892F99277E
S1131FD0019721E030E002C0220F331F8A95E2F717
S1131FE080918003822B8093800381E00E944906C4
S1131FF080E090E00895EF920F931F93AE2D99E047
S1132000899FF0011124E757FD4F40835183628378
S113201073830483158326833783A17080858E7F21
S11320208A2B8260808781E00E949C011F910F911E
S1132030EF900895AF92BF92CF92DF92EF92FF920A
S11320400F931F93F82E5A016B010E944A04AB01AF
S1132050BC01F1E0EF2E960185018F2D0E94FB0F4C
S11320601F910F91FF90EF90DF90CF90BF90AF90B2
S1132070089580910503813041F480E00E94F805C1
S11320801092DA021092D902089581E00E94F805B4
S113209010929F0110929E01089583E4809343025D
S11320A083E00E944906882339F080E00E941F0ED5
S11320B01092F3011092F201089583E88093430291
S11320C083E00E944906882339F081E00E941F0EB4
S11320D0109254021092530208958091780188233B
S11320E019F081E090E0089582E0809378018DE01A
S11320F00E949C0180E090E00895FF920F931F934B
S1132100FFB6F8948091050300917303813049F47C
S1132110112780E00E94F8051093DA020093D90297
S113212008C0112781E00E94F80510939F010093D5
S11321309E018F2D99278FBF1F910F91FF900895B6
S11321408FB7F894992720919D012093500123E0A3
S1132150209383018FBF80915001882319F081302F
S113216001F510C081E08093050380E00E9497058B
S11321708823B9F080E00E94F8051092DA021092E8
S1132180D902089582E08093050380E00E949705B8
S1132190882339F081E00E94F80510929F01109283
S11321A09E01089580917301813029F48093700118
S11321B080E00E9415058FB7F89499271092730157
S11321C0109272018FBF08950F931F93182F0FB7AA
S11321D0F89461E080E00E940D01882371F510936A
S11321E05201809155018823A9F580918D01823097
S11321F089F586E20CC00E944A0180918D018823F2
S113220049F481E080938D011092040288E20E94D7
S11322109C012AC08091C1018F3F31F5E0915401A6
S1132220EE2311F11CC01092530104C0FF27EF5399
S1132230FE4F10821092540117C081E090E002C05A
S1132240880F991F1A95E2F720918C01282B20936F
S11322508C010AC080918D018823E1F6CCCF809156
S113226053018F3F19F7DFCF802F99278FBF80E06D
S113227090E01F910F9108951F9383E00E945F01E6
S11322809927182F882319F083E00E94E410812FE6
S113229099271F910895AF92BF92CF92DF92EF9248
S11322A0FF920F931F93CF93DF93882309F0A6C067
S11322B0882799272091690230916A0240916B0224
S11322C050916C02621B730B840B950B6093970106
S11322D0709398018093990190939A01A090F202CF
S11322E0B090F302C090F402D090F502A6019501DB
S11322F02E5C3F4F4F4F5F4F0E9492312AE09595DD
S11323008795779567952A95D1F7EB01C853DF4FE9
S1132310C83CD105DCF4CE01AA2797FDA095BA2FBD
S113232008ECE02EF12C012D112DE81AF90A0A0B04
S11323301B0BC601B5012BE030E040E050E00E94E9
S11323409231685F7E4F8F4F9F4F21C081E0C33C25
S1132350D807BCF1CE01AA2797FDA095BA2F12EC9D
S1132360E12E11E0F12E012D112DE81AF90A0A0BC4
S11323701B0BC601B501660F771F881F991F6A0DD5
S11323807B1D8C1D9D1D685B7F4F8F4F9F4FA80148
S113239097010E9492319B01AC01C801B7010E94D0
S11323A09231A4E19595879577956795AA95D1F78C
S11323B060937C0370937D0380937E0390937F03EB
S11323C008C010927C0310927D0310927E03109239
S11323D07F0380917C0390917D03C81BD90BD0931C
S11323E06603C093650380917801882339F483E000
S11323F0809378018DE00E949C0113C080E00E94CC
S11324002607809100009091010090938C038093A3
S11324108B03809102009091030090938E0380932C
S11324208D03DF91CF911F910F91FF90EF90DF907B
S1132430CF90BF90AF9008956F927F928F929F92AA
S1132440AF92BF92CF92DF92EF92FF920F931F93BE
S1132450CF93DF93182FEB0180E00E94260711230E
S113246009F0D0C060909701709098018090990114
S113247090909A01209175023091760240917702F2
S113248050917802C401B3010E9492319B01AC01C6
S11324906AE055954795379527956A95D1F76091E8
S11324A0F6017091F7018091F8019091F901605063
S11324B0704A8F4F9F4F620F731F841F951F9E0199
S11324C04427552720503C41404050400E949231BF
S11324D05B016C019EE0D594C794B794A7949A9538
S11324E0D1F7E0904902F0904A0200914B0210911A
S11324F04C0282E0EE0CFF1C001F111F8A95D1F7DD
S1132500609101037091020380910303909104038D
S11325106050724080409040A40193010E94923127
S1132520BCE09595879577956795BA95D1F7E60EB2
S1132530F71E081F191FAE18BF08C00AD10AC6012A
S1132540B5012AE030E040E050E00E949231A5E07D
S11325509595879577956795AA95D1F7EB01CC5317
S1132560D64FD0936803C09367038091650390911D
S11325706603883C91051CF5BE01882777FD80958C
S1132580982F6C5A7D4080409040FEE09595879549
S113259077956795FA95D1F7E0907C03F0907D03E9
S11325A000917E0310917F03A8019701220F331F2E
S11325B0441F551F2E0D3F1D401F511F1BC0835C20
S11325C0914004F1BE01882777FD8095982F6051D2
S11325D07742804090403DE0959587957795679543
S11325E03A95D1F720917C0330917D0340917E038D
S11325F050917F030E949231C61BD70BD09368037E
S1132600C0936703809165039091660390938C0354
S113261080938B03809167039091680390938E035A
S113262080938D03DF91CF911F910F91FF90EF90D5
S1132630DF90CF90BF90AF909F908F907F906F90DE
S113264008951F93A39AAB9817981F9A89B78F7709
S113265089BF179A1F9AAB9880E0AB9AAB988F5FAB
S11326608930D9F7179A1F9AAB98AB9A1F98AB98F1
S1132670AB9A1F9AAB988091A9019091AA018F718E
S113268090709093AA018093A9010E9451080E941E
S11326905F08882329F010926D0181E090E058C012
S11326A08091A9019091AA0186309105E1F18730CA
S11326B0910538F48330910579F0059709F046C007
S11326C019C08730910519F14E9709F03FC04BE0CE
S11326D050E060E070E017C017981F9A80E00E94F5
S11326E06B0880916E0180FD0AC04AE451E060E00D
S11326F070E009C017981F9A80E00E946B084AEFA7
S113270050E060E070E082E00E941A101FC00E9456
S11327108608182F0E9486080E949C0810936E0158
S113272083E00E949C018091F6020E9451080E945D
S11327305F08882321F081E080936F0104C08091B9
S1132740F60280936E0183E00E949C0180E090E099
S11327501F9108951F9380913B01882319F484E00D
S113276090E020C080916D018823D1F481E08093B2
S11327706D0183E090E09093AA018093A9011092E7
S11327807B030E9421139927182F882369F080E086
S11327900E94A10860E070E0812F0E944F0C04C0E9
S11327A085E090E0182FF3CF1F9108951F93CF93E6
S11327B0DF93182F8FB7F894C82FDD2760E080E0EF
S11327C00E942701882321F0CFBF80E090E005C05C
S11327D0CFBF812F0E94DC019927DF91CF911F91F8
S11327E0089583E00E94D61399270895EF92FF92EB
S11327F00F931F93CF93DF93182F7B01042F8FB771
S1132800F894C82FDD2760E080E00E942701882328
S113281021F0CFBF80E090E014C0CFBF1064812FBF
S1132820992790937202809371020E94DC01182F01
S1132830402F5527B70180E090E00E945602812F77
S11328409927DF91CF911F910F91FF90EF900895F9
S1132850C098609194017091950141E08FE30E94CA
S1132860F613089582E090E09093F0018093EF01D5
S113287081E08093410220E030E080915201843075
S113288011F421E030E0232B29F484E00E945F015D
S1132890882319F40E942814089584E00E94E41007
S11328A008951F920F920FB60F9211242F933F9306
S11328B04F935F936F937F938F939F93AF93BF9344
S11328C0EF93FF938091EF019091F001019749F408
S11328D082E090E09093F0018093EF010E94321423
S11328E005C08091FF018F5F8093FF01FF91EF91FD
S11328F0BF91AF919F918F917F916F915F914F9114
S11329003F912F910F900FBE0F901F9018951F931A
S113291080918C01882309F04BC0109152011F3F14
S113292009F046C060E00E942701882309F440C0F2
S113293081E08093EF028091C0018823E1F110923D
S1132940EF0285E090E045C0923069F5C09A80912D
S1132950530120E030E08F3F11F421E030E0232BDD
S1132960E9F4109355018F3F19F42FEF30E00DC0B7
S1132970282F3327F901EF53FE4F808180935301B1
S11329808F3F11F41093540110832093040281E0CB
S113299080938D0188E20E949C0105C0109355012B
S11329A010928D0111C080918D01882369F00FC0B0
S11329B081E090E00EC08091550190918D018823B3
S11329C019F2923021F0EFCF80E00E943E0180E0C6
S11329D090E01F9108951F93CF93DF939FB7F894CE
S11329E0C92FDD271C2F90915201981721F0CFBFDA
S11329F081E090E03AC08FEF8093520130918C01D6
S1132A003323F1F48FB7F89499271092D4028FBF2F
S1132A100E948714CFBF11C02093520181E090E03F
S1132A2002C0880F991F4A95E2F7809538233093A6
S1132A308C0186E20E949C011FBF80E090E015C0DB
S1132A4080E065E0E32FFF270E94B131292F492F51
S1132A505527CF01042E02C0959587950A94E2F775
S1132A6080FDDACF822F8F5FEFCFDF91CF911F915F
S1132A70089583E00E94EB14992708951F93CF9340
S1132A80DF938FB7F894C82FDD271C2F8091EF01B7
S1132A909091F001892B29F484E00E94EB14CFBFBC
S1132AA01EC0109241028091FF01882311F0B79952
S1132AB004C00E9908C0882319F081508093FF0147
S1132AC00E9432140BC081E090E09093F001809357
S1132AD0EF011092FF0184E00E94EB141FBFDF910D
S1132AE0CF911F9108950E947E02C09AC09888E0F9
S1132AF00E94D61388E00E94D613C09A84E00E94F4
S1132B00EB140E943E150895FF920F931F93CF93E9
S1132B10DF93F82E8B018FB7F894C82FDD2760E080
S1132B2080E00E942701882321F0CFBF80E090E05D
S1132B300CC0CFBF8F2D0E94DC01812F99270E94EA
S1132B40DC01802F0E94DC019927DF91CF911F9136
S1132B500F91FF9008951F931FB7F8948091FC0183
S1132B60882319F460E070E009C060E08091740388
S1132B70882309F461E081E06827772780914E0279
S1132B80882319F480E090E00AC090E08091E40288
S1132B90882309F491E081E09827892F9927762FDB
S1132BA06627770F770F770FE4E0880F991FEA9570
S1132BB0E1F7826E9262682B792B81E10E94841581
S1132BC0812F99278FBF1F9108958FB7F894992764
S1132BD06091EE028FBF85E0689FB0011124625DB1
S1132BE07E4F706488E10E94841508951F938FB707
S1132BF0F894282F332780918B01882311F02FBF5D
S1132C0030C02FBF80B39927A6E096958795AA95E3
S1132C10E1F7182F117090916D0280916E0289175F
S1132C20D9F01917C9F484E090E090938A01809355
S1132C3089018FB7F894992721E020938B018FBFE6
S1132C4060E070E08DE10E9484150E94930CC09AAC
S1132C50C09880E20E949C0110936E0285E20E945B
S1132C609C011F910895CF93DF93C0988FB7F89478
S1132C70C82FDD2760E080E00E942701882311F03F
S1132C80CFBF0AC0CFBF83E50E94DC0180E00E9471
S1132C90DC0180E00E94DC01C09A82E00E94EB1417
S1132CA0DF91CF910895EF92FF921F93CF93DF931B
S1132CB0E0904F02F0905002F70182A59927182F57
S1132CC0882309F41FE1C0988091FA01811749F023
S1132CD0612F77276F717070606E706885E10E9454
S1132CE084151093FA01F70110818FB7F894C82F57
S1132CF0DD2760E080E00E942701882311F0CFBF28
S1132D0012C0CFBF8EE390E0909372028093710261
S1132D108EE30E94DC011150412F552760E070E0E2
S1132D20C7010E945602DF91CF911F91FF90EF904F
S1132D3008950F931F93CF93DF93EC010FB7F8948B
S1132D4011270E94C900FC018FE380830FBF1092FA
S1132D506F0310926E0361E082E00E940D018823EC
S1132D6019F085E090E072C08091F0028F5F80934B
S1132D70F00281508B838FB7F894082F112762E0FB
S1132D8081E00E942701882329F40FBF0E94770263
S1132D9081E05BC08FB7F894992724E02093D50293
S1132DA08FBFD0937D02C0937C020FBFFE0131968A
S1132DB0818129819927982F88273327822B932B68
S1132DC080729C7C8983892F992781832981982FFC
S1132DD0882733272164822B932B8983892F992772
S1132DE081831CA618A619A619AA18AA1FA680E8EA
S1132DF08EA761E06093D80240917C0250917D02DD
S1132E008FB7F894282F332780918E0190918F01EA
S1132E108830910511F0019711F02FBF15C082E0A1
S1132E2090E090938F0180938E0160938703509379
S1132E30500240934F021092A2012FBF0E943C11F6
S1132E40882311F40E94531680E09927DF91CF91D3
S1132E501F910F910895CF93DF93DA01422F2D3103
S1132E6018F082E090E05EC0ED018B876E83872FBF
S1132E7099278F832FB7F894332780914702909135
S1132E8048022FBFFD018483892F992785832FB79B
S1132E90F894332780915601909157012FBF88876A
S1132EA0892F992789873196818129819927982F9C
S1132EB08827332720643868822B932B8983892FB2
S1132EC099278183435F4C934D5080915901882306
S1132ED059F010925901642FCD010E949916992737
S1132EE0282F8823A9F417C0842F992790937A0256
S1132EF080937902B0939301A09392018AE20E9495
S1132F009C0180915901882349F489E090E00AC02A
S1132F108FEF80935901822F992704C01092590290
S1132F2080E090E0DF91CF9108951F93CF93DF93DA
S1132F30182FEB01E82FFF27EE0FFF1FEF57FD4F70
S1132F401182108210925C01E0918102F091820260
S1132F50309721F080916D0380FF0FC081E0809352
S1132F605C0103C08CE20E949C011123C1F4CD508A
S1132F70D240A9F410926C0112C020812D50332745
S1132F8067817727762F662786819927682B792B87
S1132F90AF0183850E942B17882339F3E3CFDF9198
S1132FA0CF911F9108959B0180915C01882349F47E
S1132FB060918102709182026217730711F40E947A
S1132FC095170895CF93DF93C0919201D091930107
S1132FD060917902CE010E949916482F5527442307
S1132FE051F08FEF80935901609192017091930198
S1132FF08B850E94D317DF91CF91089580915C0156
S1133000E82FFF27EE0FFF1FEF57FD4F60817181FF
S113301041E00E94951708951F93182F81E090E0D6
S113302090938F0180938E011092C0010E948714A7
S11330308FB7F8949927109388018FBF82E20E947A
S11330409C011F9108951F93162F8430B9F1853088
S113305030F4813051F0833009F054C01DC0863003
S1133060B1F1873009F04EC03CC010927E0182E07D
S11330700E94630F80918101813029F480937E0145
S113308082E00E9415058FB7F89499271092810168
S1133090109280018FBF36C0662339F483E00E940A
S11330A0A70F9927182F882369F110927A0181E0DC
S11330B00E94630F812F0E94CF0E24C010927001D2
S11330C080E00E94630F812F0E94D2101BC06623F0
S11330D089F481E00E94A70F9927182F882391F083
S11330E009C0662339F486E00E9427089927182F1F
S11330F0882341F01092820183E00E94630F812FA4
S11331000E943C0D1F9108951F93162F843071F176
S1133110853040F48230B9F08330F0F4813009F026
S11331204BC008C08730A1F18830C1F1853009F067
S113313043C025C0662339F482E00E94A70F992773
S1133140182F8823C9F11092820183E00E94630F33
S1133150812F0E943C0D30C0662389F484E00E94D4
S1133160A70F9927182F882339F109C0662339F44A
S113317085E00E94A70F9927182F8823E9F0109261
S11331807A0181E00E94630F812F0E94CF0E14C048
S1133190662351F488E00E94A70F0EC0662321F431
S11331A084E00E94270808C01092700180E00E9409
S11331B0630F812F0E94D2101F9108950E9413075C
S11331C083E00E94710E99270895AF92BF92CF9227
S11331D0DF92EF92FF920F931F93CF93DF935B01E4
S11331E06C01C0E0D0E0E9E8F2E0608561FFA7C1CE
S11331F02081318142815381E480F58006811781E9
S1133200D601C501821B930BA40BB50B8E159F052C
S1133210A007B10708F493C160FF03C06D7F608706
S113322008C02E0D3F1D401F511F20833183428350
S11332305383C23009F42AC1C33030F4CC2371F073
S1133240C13009F0A1C11AC1C43009F456C1C43057
S113325008F44BC1C53009F097C16AC180E00E94EF
S1133260F70881E00E94F7088FB7F894282F3327D6
S1133270422F80917B01882389F491E090937B0114
S1133280109287022FBF80917C01882321F480E172
S11332900E949C0125C090937D0122C080918702E9
S11332A0882311F42FBF1CC08091BF018F3F89F484
S11332B0E0914801EE2369F059C11092470104C01E
S11332C0FF27E154FE4F10821092480180E090E005
S11332D002C085E090E04FBF892B11F00E94EE08F8
S11332E080E00E943B09882311F00E94EE0881E0EF
S11332F00E943B09882311F00E94EE0880E00E949E
S11333007F09882311F00E94EE0881E00E947F0962
S1133310882311F00E94EE0880916C01882309F043
S113332033C18091390190913A0180931A02892F17
S11333309927809319028091830390918403809349
S11333401C02892F992780931B028091CD029091B2
S1133350CE0280931E02892F992780931D028091AB
S1133360D9029091DA0280932002892F99278093C1
S11333701F0280919E0190919F0180932202892FC8
S113338099278093210280918B0390918C038093E1
S11333902402892F99278093230280918D03909191
S11333A08E0380932602892F99278093250280918A
S11333B0F2019091F30180932802892F9927809339
S11333C02702809153029091540280932A02892FFC
S11333D09927809329024DE052E08FEF80931302E6
S11333E08093140211E0109318028091810290914D
S11333F08202892B09F0C0C050938202409381025B
S11334008FE180930D0280915C01882309F4B9C097
S113341010925C0122E16FEF7FEF81E00E942B1795
S11334209927882309F4ADC010935C01109282029D
S1133430109281029927282F80930602882359F439
S11334408FB7F89499272BB331E023272BBB8FBF79
S113345030936C0110C0822F99279F938F938DE135
S113346091E09F938F930E9451320E94EE080F9037
S11334700F900F900F901092060286C00E94EB07E7
S1133480882309F481C00E942E0F7EC08091A90177
S11334909091AA0185309105C9F08E31910521F0F2
S11334A0039709F071C003C010926D016DC01092B2
S11334B06D0180917B03882309F066C00E94A108F6
S11334C060E070E081E00E944F0C5EC010926D01DC
S11334D080917B03813009F057C00E94A10860E00D
S11334E070E081E00E945D0C4FC00E9409088823AF
S11334F009F44AC00E940E0D47C0829B15C08091FA
S113350079018F5F80937901863030F08091780162
S1133510833021F18230D1F044E150E060E070E08A
S113352084E00E941A1030C08EE00E949C012CC0DE
S11335300E94C806882341F10E94E60625C0219610
S11335403996C730D10509F050CE1EC010927801CB
S113355060E070E081E00E944B1116C01092780187
S113356060E070E081E00E941C120EC0809147016F
S11335708F3F09F0A5CEA1CE85E08093060225E019
S11335806ACF109206025CCF81E00E949C01DF9119
S1133590CF911F910F91FF90EF90DF90CF90BF904C
S11335A0AF900895AF92BF92CF92DF92EF92FF92C5
S11335B00F931F930E944A045B016C018FB7F89428
S11335C0992710927E028FBF4FEFE42E4FEFF42E17
S11335D04FEF042F4FE7142F60E0E9E8F2E0808515
S11335E081FF1CC080819181A281B381A6019501D4
S11335F0281B390B4A0B5B0BDA01C9012481358185
S113360046815781281B390B4A0B5B0B2E153F054E
S1133610400751071CF479018A0161E0399632E0D0
S1133620E83CF307E1F66623D9F01E141F041006E4
S113363011062CF0C601B5010E94E51811C0E092F4
S1133640FD02F092FE020093FF021093000381E05A
S11336508093F501A8019701C601B5010E94460AAD
S11336601F910F91FF90EF90DF90CF90BF90AF909C
S113367008951F93162F833061F40E94130783E08B
S11336800E94710E112311F084E101C083E10E94B4
S11336909C011F910895CF92DF92EF92FF920F93B6
S11336A01F93CFB6F894DD240E949902DC01CB016C
S11336B066E470E00E94BD315BE0E52EF12CE80E7B
S11336C0F91EF0928203E09281030E9419030027FD
S11336D01127A80197010E94D603CFBE1F910F9115
S11336E0FF90EF90DF90CF9008958FB7F8949927CB
S11336F020914D022093410123E0209374018FBF58
S113370080914101813051F1813038F0823009F4E7
S113371041C0833009F072C057C08091700181307C
S113372031F487E00E94C107882359F40895A398CF
S1133730AB9817981F9887E00E94A70F882309F475
S11337405DC01092700180E00E94630F0E94EB073D
S1133750882309F453C00E942E0F089580917A01A2
S1133760813031F483E00E94D10F882339F4089525
S113377083E00E942708882309F440C010927A014C
S113378081E00E94630F0E9409088823B9F10E9416
S11337900E0D089580917E01813029F40E94D10F8D
S11337A0882331F4089581E00E942708882331F1A9
S11337B010927E0182E00E94630F0E94C806882353
S11337C0E9F00E94E606089580918201813031F487
S11337D087E00E94D10F882331F4089587E00E9486
S11337E02708882359F01092820183E00E94630F16
S11337F00E94A307882311F00E94E00E08951F93EE
S1133800162F843009F447C0853040F4823019F112
S1133810833070F5813009F08BC00AC0873009F419
S113382066C0883009F473C0853009F081C045C092
S1133830662331F482E00E94C107882309F478C02A
S11338401092820183E00E94630F0E94A3078823E1
S113385009F46EC00AC01092820183E00E94630FD3
S11338600E94A307882309F463C00E94E00E60C08D
S1133870662331F484E00E94C107882309F458C008
S113388010927A0181E00E94630F0E940908882344
S113389009F44EC029C0662331F485E00E94C107B3
S11338A0882309F445C010927A0181E00E94630FD5
S11338B00E9409088823E1F117C010927A0181E07F
S11338C00E94630F112361F48D9A8A98929A8B9ABD
S11338D04CE251E060E070E083E00E941A1028C0DE
S11338E00E940908882321F10E940E0D21C066233D
S11338F021F488E00E94C1071BC01092700180E08F
S11339000E94630F0E94EB07882391F00FC0662387
S113391021F484E00E94D10F0BC01092700180E06A
S11339200E94630F0E94EB07882311F00E942E0F60
S11339301F910895809172038823E1F1109272031C
S11339408091A4018823C1F01092A4014091CC027B
S1133950209160023327842F9927019702C035955F
S113396027958A95E2F720FF02C060E001C061E07C
S1133970842F0E94FF1B0895809170038823D1F047
S1133980109270034091CC02209160023327842F5F
S11339909927019702C0359527958A95E2F720FD6E
S11339A005C060E0842F0E948418089561E0842F8C
S11339B00E94841808951F93162F8430C1F1853016
S11339C030F4813059F0833009F06AC01CC086306D
S11339D009F443C0873009F063C050C0662331F452
S11339E082E00E944906882309F45AC010927E019D
S11339F082E00E94630F0E94C806882309F450C025
S1133A000E94E6064DC0662331F483E00E94C1079C
S1133A10882309F445C010927A0181E00E94630F63
S1133A200E9409088823E1F10E940E0D39C010920A
S1133A30700180E00E94630F112341F44BE050E0D9
S1133A4060E070E081E00E941A102AC00E94EB0737
S1133A50882331F10E942E0F23C0662329F481E0CC
S1133A600E94C1078823E1F01092820183E00E9442
S1133A70630F0E94A307882399F010C0662329F4DA
S1133A8086E00E94D10F882359F01092820183E0CE
S1133A900E94630F0E94A307882311F00E94E00E86
S1133AA01F910895809142028823C1F0109242022E
S1133AB080919601882339F01092960161E08091FB
S1133AC0F1020E94DB1C80917B02882339F0109262
S1133AD07B0261E08091F1020E9423180895809195
S1133AE042028823E1F110924202809196018823D8
S1133AF0C1F0109296014091F10220918003332786
S1133B00842F9927019702C0359527958A95E2F766
S1133B1020FF02C060E001C061E0842F0E94DB1C32
S1133B20089580917B028823D1F010927B0240910A
S1133B30F102209180033327842F9927019702C033
S1133B40359527958A95E2F720FD05C060E0842F1E
S1133B500E942318089561E0842F0E942318089579
S1133B601F93CF93DF938FB7F894C82FDD271C2FB3
S1133B7080918E0190918F010897C9F489E00E9489
S1133B80D61383E00E94EB14C09A81E090E09093F6
S1133B908F0180938E018FB7F894992723E02093A7
S1133BA088018FBF82E20E949C01CFBF30C0C098C1
S1133BB080918703882311F085E001C084E00E948E
S1133BC0D61383FD09C080E00E94D61383FF04C08E
S1133BD085E090E020E003C083E090E021E0909352
S1133BE08F0180938E01C09A1FBF222341F010924F
S1133BF0A20183E00E94EB140E944B1B08C00E94A8
S1133C00190320E431E040E050E00E94D603DF9144
S1133C10CF911F9108958FB7F894992720918E0121
S1133C208FBF243039F0283041F0223019F50E943A
S1133C30531608950E94B01D0895C09889E00E940B
S1133C40D613C09A83E00E94EB142FB7F89433275D
S1133C5081E090E090938F0180938E012FBF8FB706
S1133C60F894992723E0209388018FBF82E20E9471
S1133C709C01089583E00E94EB140895EF92FF9253
S1133C800F931F93CF93DF938B01809171029091D7
S1133C90720286FF40C18F7B8F3309F08EC1C091C1
S1133CA09401D091950158815093F4018091EF01D2
S1133CB09091F0018530910509F443C08630910557
S1133CC009F48AC0029709F01FC185E090E090933F
S1133CD0F0018093EF014091BE01852F9927019651
S1133CE0242F3327281739074CF1B79906C00E99AA
S1133CF004C0451B41504093BE014091F4014A3237
S1133D00E8F44423A1F0BE016F5F7F4F483018F000
S1133D1047E050E007C086E090E09093F001809384
S1133D20EF01552780E090E00E94560246C11092B0
S1133D304102C09A84E00E94EB14E3C00E94731510
S1133D403CC186E090E09093F0018093EF01809174
S1133D504E02882309F439C08091E4028823A9F52E
S1133D60898185FF32C08F814E812FB7F894332724
S1133D7060916702709168022FBF9927982F882756
S1133D805527842B952B8617970759F08F812E8101
S1133D909927982F88273327822B932B8F5F9F4F48
S1133DA0A1F489818770813081F4C09AC0988AE037
S1133DB00E94D613C09AC0984091F40147502896A7
S1133DC0BE018FE30E94F613F8C04091F4014750FE
S1133DD055272896BE01A6CFC09A8091FF0188235B
S1133DE039F484E00E94EB148091FF01882311F0E0
S1133DF0B7990AC00E9B08C090915A03992321F0E9
S1133E008091F4018B3038F4809194019091950164
S1133E100E948A023DC0913001F5E0915E03FF27C4
S1133E20EE0FFF1FEE0FFF1FEA5FFC4F2081318171
S1133E3042815381E0919401F091950121ABBB271C
S1133E40A52F942F832F80ABCA01AA27BB2787A74E
S1133E50252F33274427552726A780915E039927CA
S1133E60019668E070E00E94D13180935E038091F6
S1133E705A03815080935A03882351F0809194010E
S1133E80909195010E948A0210925E0310925A0347
S1133E908091F401FE01E80FF11D808187FF31C09C
S1133EA0012B79F169816770E0919401F09195019A
S1133EB0623019F5A0914F02B0915002109709F1A8
S1133EC080918E0190918F010797D9F4ED019B8128
S1133ED083819817B1F487B78F7E87BF908181E083
S1133EE08CA7E90FF11D8291319688A780818F7785
S1133EF089A780E00E940C1804C0613011F489E2A3
S1133F002AC00E943E1559C010924102C09A84E012
S1133F100E94EB1452C08E3309F04FC0C09A8091B6
S1133F208E0190918F010897C9F4C09889E00E948E
S1133F30D613C09A83E00E94EB1481E090E0909342
S1133F408F0180938E018FB7F894992723E02093F3
S1133F5088018FBF82E20E949C012FC08091870359
S1133F60882349F484E090E090938F0180938E013C
S1133F700E94B01D22C083E00E94EB1483E090E015
S1133F8090938F0180938E010E949902DC01CB01F2
S1133F9066E371E00E94BD316BE0E62EF12CE80E81
S1133FA0F91EF092B801E092B7010E9419030027AC
S1133FB01127A80197010E94D603DF91CF911F9189
S1133FC00F91FF90EF9008951F920F920FB60F92EA
S1133FD011242F933F934F935F936F937F938F930A
S1133FE09F93AF93BF93EF93FF932FB1E091C802D8
S1133FF0F091C902309739F080917F02909180024C
S1134000E80FF91F208380917F029091800201962E
S11340109093800280937F0280E00E94440140914B
S1134020A0015091A10180917F0290918002841798
S1134030950718F40E94E8011CC06091C8027091B1
S1134040C90280917503909176031092C90210926F
S1134050C80210927603109275031092A101109277
S1134060A0011092800210927F022FB120E00E94E2
S11340703E1EFF91EF91BF91AF919F918F917F91E0
S11340806F915F914F913F912F910F900FBE0F90C1
S11340901F90189578941F920F920FB60F921124C7
S11340A02F923F924F925F926F927F928F929F9244
S11340B0AF92BF92CF92DF92EF92FF920F931F9332
S11340C02F933F934F935F936F937F938F939F931C
S11340D0AF93BF93CF93DF93EF93FF93C6B5D7B559
S11340E08FB7F894282E0E9419039B012C1B3D0BBB
S11340F0442755272B013C01421A530A640A750AC6
S113410080918E0190918F018530910521F0069761
S113411009F0E0C0BFC086E090E090938F018093E7
S11341208E0131E0332E30920B021092900180E028
S11341300E943204E0914F02F091500241AABB2741
S1134140A72D962D852D80ABC301AA27BB2787A752
S1134150872D9927AA27BB2786A7E0914F02F091C4
S1134160500285A5882309F484C0608165507727AF
S11341704F01860E971EF4012081E1808281A38085
S11341809927AA27BB27BA2FA92F982F8827332727
S113419044275527522F442733272227FF2400275B
S11341A011278701FF24EE242E293F29402B512B70
S11341B0BB24CC24DD242A293B294C295D29822BCC
S11341C0932BA42BB52B84199509A609B7098383CE
S11341D0292F3A2F4B2F552722839D0144275527FA
S11341E021838B2F9927AA27BB278083C09824E09B
S11341F0A40180E090E00E94F103C09AF4012081C0
S1134200E1808281A3809927AA27BB27BA2FA92FEF
S1134210982F8827332744275527522F442733279D
S11342202227FF24002711278701FF24EE242E29AB
S11342303F29402B512BBB24CC24DD242A293B29A4
S11342404C295D29822B932BA42BB52B840D951D12
S1134250A61DB71D8383292F3A2F4B2F5527228361
S11342609D014427552721838B2F9927AA27BB27F4
S11342708083E0914F02F0915002818185FF02C05A
S11342803092C00183E00E94EB1487B78F7E87BF12
S113429084997AC010920B0281E00E943204E0916A
S11342A04F02F0915002818185FF0FC087E090E0BA
S11342B090938F0180938E010E94190320E031E0D6
S11342C040E050E00E94D60303C080E00E940C1836
S11342D0849B5AC080919001882391F580910B02B0
S11342E0882371F511E010930B020E94320480B30D
S11342F020915A03283098F4E0915E03E20FFF27DF
S1134300E770F070EE0FFF1FEE0FFF1FEA5FFC4F28
S113431040825182628273822F5F20935A031093EA
S11343209001D0937402C093730284992DC099278D
S113433064E0969587956A95E1F7182F117001C08E
S113434010E080910B028130F9F410920B020E946C
S11343503204109290011123B9F480917302909168
S11343607402C81BD90B2A9778F480915A038823C6
S113437019F0815080935A0380914F02909150021A
S1134380009711F00E948A022FBEFF91EF91DF91F6
S1134390CF91BF91AF919F918F917F916F915F91D9
S11343A04F913F912F911F910F91FF90EF90DF90CC
S11343B0CF90BF90AF909F908F907F906F905F90C1
S11343C04F903F902F900F900FBE0F901F90189515
S11343D078941F920F920FB60F9211241F932F936C
S11343E03F934F935F936F937F938F939F93AF9379
S11343F0BF93EF93FF9387B78F7E87BF78941FB7E0
S1134400F89480915C0290915D02A0915E02B0915B
S11344105F020097A105B10509F051C080918E019A
S113442090918F018530910561F18630910530F4CA
S11344308330910549F0049781F51AC087309105BE
S1134440F1F0089751F514C0869B0FC084E090E00A
S113445090938F0180938E010E94190327E030E02E
S113446040E050E00E94D60318C00E944B1B15C0C8
S11344700E943C11882389F40E94B01D0EC080E084
S11344800AC089E00E94D61381E00E94320483E0CE
S11344900E94EB1487E00E940C188091890190918E
S11344A08A01019771F482E090E090938A018093ED
S11344B08901DE98DE9A80E00E94E41002C00E9426
S11344C03603812F99278FBFFF91EF91BF91AF9151
S11344D09F918F917F916F915F914F913F912F9118
S11344E01F910F900FBE0F901F90189561E081E00F
S11344F00E940D018823E9F48FB7F894282F3327FD
S11345008091890190918A01892B11F02FBF20C0DD
S113451081E090E090938A01809389012FBFDD9A16
S11345200E94190324E130E040E050E00E94D603E9
S11345300FC062E081E00E942701882319F089E01E
S113454090E0089561E081E00E942701882319F03A
S113455080E090E0089585E090E00895FF920F9345
S11345601F93F62E813011F1813030F08230A9F1A1
S1134570833009F04EC041C0809177039091780355
S11345804817590709F045C0213009F042C00056C8
S1134590124009F03EC00E94130780E00E94710E91
S11345A0FF2011F488E033C089E031C080919B0181
S11345B090919C014817590761F5213051F5005835
S11345C0134039F50E94130781E00E94710EFF2009
S11345D011F48BE01CC08CE01AC010927E0182E0C2
S11345E00E94630F0E94130782E00E94710EFF2055
S11345F011F085E10CC086E10AC0662339F00E94FF
S1134600130783E00E94710E84E101C082E10E94DD
S11346109C011F910F91FF900895DF92EF92FF92FA
S11346200F931F93E62ED22E9FB7F894292F33278A
S113463090914501981711F02FBF92C02FBF8FB7EB
S1134640F894282F332780917601813041F582E058
S1134650809376012FBF8FB7F89499275093520215
S1134660409351021093010200930002D092A301DF
S1134670609388031092FB02109277018FBF0E940F
S113468040068FB7F894F82E9091CA02916C9F7EE1
S11346909093CA026E2D772760FD0BC011C088234A
S11346A021F42FBF84E090E065C02FBF85E090E047
S11346B061C090629093CA0284E08093760153C0F3
S11346C0DD2009F43FC083E0809376013091FB0242
S11346D02091A301321778F4E0910002F0910102D5
S11346E0E30FF11D8081809373003F5F3093FB02E1
S11346F0909374003CC0392F3E7F3093CA0280915E
S1134700880381FF07C08D7F8093880330613093D5
S1134710CA0203C09E779093CA028091CA02809312
S1134720740081E0809376010091000210910102EF
S1134730409151025091520260E0809145010E94E3
S1134740AE2215C061FF08C085E0809376019F7B8F
S113475090619093CA0207C081E080937601FFBE06
S113476081E090E007C08091CA0280937400FFBE8C
S113477080E090E01F910F91FF90EF90DF900895FB
S11347800F931F932FB7F89433278091F1018093EF
S1134790440183E0809375012FBF209144018FB7BA
S11347A0F8949927209345018FBF213091F021304F
S11347B030F02230D1F0233009F046C032C04091AD
S11347C077035091780300E612E021E063E080E093
S11347D009C040919B0150919C0100E813E021E045
S11347E063E081E00E940D232FC00AE411E021E080
S11347F049E350E067E082E00E940D23882321F121
S113480010927E0182E00E94630F0E94130782E0EF
S11348100E94710E0E94C8068823B1F00E94E60629
S113482013C003E412E021E049E350E067E083E0D1
S11348300E940D23882341F00E94130783E00E9405
S1134840710E84E10E949C011F910F910895FF92C3
S11348500F931F93F82E0E9440068091CA028A7F0C
S11348608093CA02809374000E9440068091CA0219
S113487084608093CA028093740081E080937601FF
S11348808091770100910002109101024091510240
S113489050915202882341F02091A3016F2D809101
S11348A045010E94391B07C02091A3016F2D8091FF
S11348B045010E94AE221F910F91FF9008951F920F
S11348C00F920FB60F9211240F931F932F933F93C0
S11348D04F935F936F937F938F939F93AF93BF9304
S11348E0EF93FF930E94400680917601843009F48F
S11348F0B3C0863021F0833009F0DBC019C0909139
S11349007100987F80917701813041F4903471F483
S113491083E0809376012091FB021FC0983131F42B
S113492083E0809376019091FB025CC084E0A9C08F
S1134930809177019091FB02813009F053C0E0919E
S11349400002F0910102E90FF11D80917300808350
S11349502091FB022F5F2093FB029091A301291762
S1134960A8F43327892F992701972817390749F481
S11349708091880382FD05C08091CA028F7B809359
S1134980CA028091CA028093740093C02091CA0223
S1134990322F3E7F3093CA028091880381FF09C081
S11349A08D7F8093880330613093CA0280917100B7
S11349B003C02E772093CA028091CA0280937400A8
S11349C081E08093760100910002109101024091F0
S11349D0510250915202292F60E0809145010E94BA
S11349E0391B67C02091A3013091CA02921768F461
S11349F0E0910002F0910102E90FF11D80818093A2
S1134A0073009F5F9093FB0252C0932F9E7F9093FD
S1134A10CA028091880381FF07C08D7F8093880339
S1134A2090619093CA0203C03E773093CA0280918A
S1134A30CA028093740081E08093760100910002A1
S1134A4010910102409151025091520260E0809114
S1134A5045010E94AE222DC0809188038E7F8093F1
S1134A6088039091CA029F7D9093CA02809171003D
S1134A70887F883049F080917100887F803121F0EF
S1134A8081E00E94272415C0392F30643093CA0274
S1134A9090915102990F20E080917701813009F4BF
S1134AA021E0922B9093730086E0809376013093FB
S1134AB07400FF91EF91BF91AF919F918F917F917E
S1134AC06F915F914F913F912F911F910F910F9093
S1134AD00FBE0F901F901895CF93DF93C0E0D0E0E6
S1134AE0C03120F4C0FD02C0939A01C093980E9483
S1134AF072072196C531D10599F7DF91CF910895B9
S1134B00AF92BF92CF92DF92EF92FF920F931F93D7
S1134B10CF93DF93CDB7DEB7A8970FB6F894DEBF77
S1134B200FBECDBFE82FFF27ED32F10508F07AC69E
S1134B30EA5BFF4FEE0FFF1F0590F491E02D0994FF
S1134B408091F501882361F52091FD023091FE02E8
S1134B504091FF0250910003EFB7F894FF27609152
S1134B60D0027091D1028091D2029091D302E09050
S1134B70BA01F090BB010091BC011091BD016E0D12
S1134B807F1D801F911FEFBF2093FD023093FE0213
S1134B904093FF02509300031092F5010E94460ACD
S1134BA00E944A040E94E5183DC60E94D21A3AC6E1
S1134BB080916D01882309F435C68091A3028D7F0D
S1134BC08093A3020E948608082F0E94860811275A
S1134BD0102F00279927082B192B0E9486080E9462
S1134BE09C088091A9019091AA018330910521F03C
S1134BF0059709F017C60BC010926D0180917B03D5
S1134C00882309F00FC6B8010E94060F0BC6109244
S1134C106D0180917B03813009F004C6B80180E006
S1134C200E94160FFFC58091A9019091AA018630B8
S1134C30910531F0079709F0F5C510926D01F2C5A1
S1134C4010926D0110926F01EDC58FB7F8949927FA
S1134C502091ED0220933E0123E0209371018FBF48
S1134C6020913E01222321F0213009F0DBC503C04D
S1134C700E94AA13D7C580913B01882319F484E0CC
S1134C8090E0CEC580916D01882309F0C7C52093BB
S1134C906D0185E090E09093AA018093A90120938F
S1134CA07B030E9421139927182F882309F4BAC57E
S1134CB00E94E90860E070E0812F0E945D0CB2C59B
S1134CC00E94260FAFC582E0809370010E94710597
S1134CD0A9C50E94751BA6C50E949A1CA3C58091F4
S1134CE07203882309F49EC5109272038091A40173
S1134CF0882339F01092A40161E08091CC020E94D3
S1134D00FF1B80917003882309F48CC510927003F3
S1134D1061E08091CC020E94841884C50E94C02363
S1134D2081C50E946F1D7EC50E94521D7BC5809166
S1134D307801813009F0FBC08FB7F894E82EFF2486
S1134D4000E08BEDC82E82E0D82E0E946C250F5F08
S1134D500000000010E081E00E9479071F5F13301B
S1134D60D1F780E00E94790781E00E947907013041
S1134D7029F480E00E94790781E00DC0023029F413
S1134D8080E00E94790781E013C0033059F481E088
S1134D900E94790780E00E94790780E00E947907E9
S1134DA081E00CC0043061F481E00E94790780E066
S1134DB00E94790781E00E94790780E00E947907C8
S1134DC010E080E00E9479071F5F1430D1F70000E3
S1134DD00E948107F601819391936F01043009F0D9
S1134DE0B4CFEFBE109278012091DB023091DC0247
S1134DF0C90196958795AA27BB278093F6019093BE
S1134E00F701A093F801B093F901A090DF02B090EC
S1134E10E002C5018F73907016E0880F991F1A95F0
S1134E20E1F7E090E102F090E202B7016F73707075
S1134E30862B972BAA27BB278093490290934A027B
S1134E40A0934B02B0934C02B6E0F694E794BA9563
S1134E50E1F700271127E0927502F09276020093A1
S1134E60770210937802A6E0B694A794AA95E1F786
S1134E70CC24DD24A0920103B0920203C092030368
S1134E80D092040321703070322F2227330F330F56
S1134E908091DD029091DE02BC01E6E07695679593
S1134EA0EA95E1F7262B372B4427552720935F03F8
S1134EB0309360034093610350936203AA27BB2796
S1134EC08F739070A070B0708093F2029093F3028D
S1134ED0A093F402B093F50263E0220F331F441F42
S1134EE0551F6A95D1F72050314B4F4F5F4F209398
S1134EF0690230936A0240936B0250936C020E94E1
S1134F006D10882309F48EC40E946D0780910000FF
S1134F109091010090938C0380938B038091020005
S1134F209091030090938E0380938D037BC40FB7FD
S1134F30F8940E946C250000000010E081E00E94BB
S1134F4079071F5F1330D1F780917801833059F4CA
S1134F5081E00E94790780E00E94790781E00E9445
S1134F60790780E00CC0823061F481E00E94790707
S1134F7080E00E94790780E00E94790781E00E9426
S1134F80790710E080E00E9479071F5F1530D1F7A0
S1134F901092790144E250E060E070E084E00E9405
S1134FA01A10802F99276FC10FB7F89411270E9408
S1134FB0810790930302809302020FBF6091020263
S1134FC07091030280917801823031F4109278015B
S1134FD080E00E944B1126C4833009F023C4109250
S1134FE0780180E00E941C121DC42FB7F894332767
S1134FF0809187028093490183E080937B012FBFD6
S113500080914901882309F00DC4809146018823C9
S113501079F080917801882319F081E090E00AC04A
S113502081E0809378010E94C30180E090E002C097
S11350300E946D10882391F00E946D0780910000FA
S11350409091010090938C0380938B0380910200D4
S11350509091030090938E0380938D0310924601E8
S1135060E1C30E94C80EDEC382E080937A010E94ED
S11350707605D8C38FB7F894282F3327809145013C
S1135080833009F037C02FBF8FB7F894282F332708
S113509040917601413071F582E0809376012FBF13
S11350A02FB7F894332789E390E0909352028093CA
S11350B051028CEF92E0909301028093000240939E
S11350C0A30187E0809388031092FB024093770149
S11350D02FBF0E9440062FB7F89433278091CA024D
S11350E08F7A816A8093CA0294E0909376018093C8
S11350F0740027C12FBF0E94DE180E94C80192C30A
S11351001091FC02809143021F77833449F40E947A
S11351106C0E812F99279093F3018093F20182C33F
S11351200E94670E812F9927909354028093530213
S113513079C380914302833439F40E946C0E109237
S1135140F3011092F2016EC30E94670E1092540292
S11351501092530267C381E00E940C0763C348EEB8
S113516053E060E070E085E00E941A105BC38FB7E3
S1135170F89499272091B90120934D0123E02093BD
S11351807F018FBF80914D01882321F0813009F088
S113519049C303C00E944D1045C30E945D1042C321
S11351A00E945B0F3FC30E94540F3CC30E947D10BA
S11351B039C30E94391036C30E94A01033C30E9421
S11351C07B0530C30E94340D2DC30E94F5042AC30D
S11351D00FB7F89411270E94450451E0E52EF12CF5
S11351E0F0928F01E0928E01109290011092C00112
S11351F01092FA010FBF0FB7F89411270E947E0294
S1135200F092F001E092EF011092410289B78F7B96
S113521089BF80E488BF8AB780628ABF8AB78F7EDD
S11352208ABF89B7806489BF0FBF8FB7F894082FEE
S113523011278091890190918A01049711F40E94A9
S1135240F1130FBF0FB7F8941127C09A80E00E94A2
S1135250EB140FBF8FB7F894992722E02093D5025F
S11352608FBF0E944A04AB01BC01EE2400ED17E09D
S113527020E030E080E00E94FB0FD4C28FB7F894A6
S113528099271092D5028FBFCDC28FB7F894992772
S1135290F09088018FBF83E00E943801882351F188
S11352A00FB7F894112710928F0110928E0187B7CF
S11352B08F7E87BF87B78F7D87BF0E943915C09ABD
S11352C00FBF0FB7F89411271092F0011092EF015D
S11352D00E947E02C09A89B78F7B89BF0FBF10924C
S11352E08A0110928901DE98DD98DE9A81E20E949B
S11352F09C0107C08FB7F894992722E02093D50228
S11353008FBF00917C0210917D020E9477028091F0
S11353106E0390916F03892B09F084C28FEF809301
S113532059014F2DB801F80183850E94D3177AC221
S11353308FB7F894282F3327122F80918503882361
S113534011F02FBF6FC281E08093850380918901A2
S113535090918A01049721F481E00E94E41002C034
S11353600E94CD011FBF5EC28FB7F8949927109297
S1135370850389CF0E94F61555C28FB7F8949927F3
S1135380209152018FBF223009F464C0233030F4DD
S1135390222359F0213009F045C247C0233009F4D3
S11353A05CC0243009F03EC25BC0C0988FB7F8944B
S11353B0082F11278091890190918A01029799F50C
S11353C083E090E090938A018093890168E170E022
S11353D08DE10E94841581E080936D0210928B010F
S11353E080B3992746E0969587954A95E1F78170B1
S11353F0907080936E020E94D20181E00E94D613C5
S11354006FE772E08CE10E9484150E94E5150E940A
S1135410AB1566E57AE287E10E9484156FEF70E8C8
S113542085E10E9484150FBFFDC1C09886E00E94EB
S1135430D6130E94E5150E94AB150E94930CC09AE6
S1135440C0980E94F113C09A81E00E94EB140E945C
S1135450CD01E8C10E943316E5C10E940B1EE2C1D2
S11354600E942814DFC10FB7F89411274091A001BE
S11354705091A1016091C8027091C9028091750395
S1135480909176031092C9021092C802109276038A
S1135490109275031092A1011092A0011092800243
S11354A010927F0220E00E943E1EBDCF2FB7F894D9
S11354B03327809104028093550182E080938D010B
S11354C02FBF80915501882309F0ACC1B89AC098C8
S11354D00E94D701A7C1A0919401B0919501DC90DD
S11354E09D012D0D311DF9018081881F8827881F9A
S11354F0FD0183A7F90180818F77FD0181A72150E8
S11355003040F9018081FD0180A7A0919401B09100
S11355109501FD0132818FB7F89499272091FC0100
S11355208FBF222309F490C0832F992796958795DE
S113553096958795837090708230910541F58781A7
S113554046812FB7F89433276091670270916802FF
S11355502FBF9927982F88275527842B952B86179B
S1135560970719F481E090E06CC0FD0187812681E2
S113557040E050E09927982F88273327822B932BDC
S11355808F5F9F4F11F441E050E0CA015AC0039766
S113559009F024C19E012F5F3F4F45EE52E088E0A1
S11355A0FA010190AF01F90101929F018150C1F705
S11355B09E012F5D3F4FAE014F5F5F4F88E0FA01C0
S11355C00190AF01F90101929F018150C1F79E0141
S11355D0275F3F4FAE014F5D5F4F88E0FA010190B6
S11355E0AF01F90101929F018150C1F79E012F5E25
S11355F03F4FAE01475F5F4F88E0FA010190AF0172
S1135600F90101929F018150C1F79E01275E3F4F2E
S1135610AE014F5E5F4F88E0FA010190AF01F901DE
S113562001929F018150C1F748E050E0BE01675EDE
S11356307F4FCD0106960E943D32892B09F0CEC0E2
S113564003C0882309F4CAC0FCE0FD1508F0C6C0F5
S1135650E0909401F0909501F7012281822F99271F
S113566016E0969587951A95E1F7039719F468E083
S113567070E002C062E070E0822F992796958795CA
S11356809695879583709070039719F488E090E05D
S113569002C082E090E026E030E0E20EF31E40E03B
S11356A050E020E030E0F701E80FF91F8AEF9FEFA8
S11356B0E80EF91E05C08191480F511D2F5F3F4F21
S11356C026173707C4F3F70163818FEF80937103C3
S11356D08FB7F894782F20E030E0EBEAF1E0808196
S11356E091818417950729F48281861731F12093DB
S11356F071032F5F3F4F33962430310581F77FBF0D
S1135700909171033FB7F8949F3F21F080919101EC
S11357108917A9F420919101822F9927FC01EE0F9A
S1135720FF1FE80FF91FE555FE4F51834083628345
S11357302F5F2370209391010EC07FBF4BC0892F30
S11357409927FC01EE0FFF1FE80FF91FE555FE4FE7
S1135750518340836283832F99278FBF0FB7F894B7
S11357601127C7010E94C900FC0190810FBFF701F6
S113577083A5882379F19F3369F5878146812FB703
S1135780F894332760915601709157012FBF9927E0
S1135790982F88275527842B952B8617970759F020
S11357A0878126819927982F88273327822B932B4B
S11357B08F5F9F4F79F4F7018385813059F4FFE1BE
S11357C0DF1641F48FB7F89499272BB332E02327DF
S11357D02BBB8FBFF0929501E09294018FB7F894A0
S11357E09927109241028FBF0E943E151BC09091D1
S11357F05902809159019817A9F09093590199235E
S113580019F40E94E2170EC08FEF809359010AC069
S11358100E949D0007C00E94FE1704C085E090E02E
S1135820182F46CAA8960FB6F894DEBF0FBECDBF98
S1135830DF91CF911F910F91FF90EF90DF90CF9068
S1135840BF90AF90089580915B038F3FB1F0282FF4
S11358503327F901EE53FE4F808180935B038F3F22
S113586011F4809386038FEF80832F3F31F0822FD2
S11358700E94802581E090E0089580E090E0089502
S1135880FF920F931F93CF93DF93CDB7DEB7E097CB
S11358900FB6F894DEBF0FBECDBFFFB6F8944DE24D
S11358A050E06FEF70E082EC91E00E944A328FEF9B
S11358B080935B038093860381E08EBD88E080BF84
S11358C083E083BF8CB59DB54AE72CB53DB5281759
S11358D0390708F44150442311F0C901F6CF92B7B7
S11358E082B78917E9F32CB53DB592B782B789170A
S11358F0E9F38CB59DB5821B930B409665E09695B4
S113590087956A95E1F790935D0380935C0313BEDA
S113591083B78EBD8EB580BF12BE1DBC1CBC8FEF7D
S113592086BF86B780937C0080B799278770907074
S1135930892BD1F7D29AD19AD09ADA9AD99AD89A4D
S113594015BA8FEF84BBD498DC981DBC1CBC87B7F8
S1135950846087BF8EB5887F84608EBD16B8109230
S113596089001092880080917D00846080937D007E
S113597080918A00887F826080938A000E94232C11
S11359808823E1F78FEF80930502EBEAF1E08FEFD4
S11359909FEF918380831282339621E0E73BF207E5
S11359A0C1F70E9499026093F002809139019091AD
S11359B03A010196AA27BB27809355029093560279
S11359C0A0935702B093580286E293E09093950116
S11359D0809394018E98B89A8C988FEF8093C1012C
S11359E01092D4021092D5021092D6021092D702CD
S11359F0B89AD69AD59A8FB7F894992720915601D8
S1135A00309157018FBF30936802209367020E9440
S1135A10600A29A73AA74BA75CA76DA77EA78FA703
S1135A2098ABDE019196FE01B99688E001900D9243
S1135A308150E1F7DE015196FE01B19688E00190B4
S1135A400D928150E1F7DE015996FE01719688E0CE
S1135A5001900D928150E1F7A5EEB2E0FE01799636
S1135A6088E001900D928150E1F7809158019927C7
S1135A7090934802809347028FE18093CF028AE19A
S1135A808093EE020E94600A29A73AA74BA75CA75D
S1135A906DA77EA78FA798ABDE019196FE01B996FC
S1135AA088E001900D928150E1F7DE011196FE012C
S1135AB0B19688E001900D928150E1F7DE011996CC
S1135AC0FE01319688E001900D928150E1F7A5EE38
S1135AD0B2E0FE01399688E001900D928150E1F721
S1135AE0A5EEB2E0FD0137969C9180818D93908361
S1135AF0319782E0E83EF807B9F781E08093FC0132
S1135B001092740380934E021092E4021092880261
S1135B1042E050E06FEF70E08DEF91E00E944A3276
S1135B2042E050E06FEF70E083E693E00E944A3277
S1135B308FEF8093BF0188E490E090939C01809361
S1135B409B011092800310924202109296011092CF
S1135B507B0244E050E06FEF70E087E092E00E9447
S1135B604A3289E490E0909378038093770310920B
S1135B706002109272031092A4011092700344E028
S1135B8050E06FEF70E089E693E00E944A3242E011
S1135B9050E06FEF70E081E692E00E944A328DE5BA
S1135BA091E0909392038093910312E006E0609158
S1135BB05C0370915D03882799275CE0660F771F6B
S1135BC0881F991F5A95D1F720E031EE40E050E04C
S1135BD00E94E4312150304029B9832F99278093C2
S1135BE090001BB9009395001AB8209399008093F4
S1135BF0980010939B0000939D0010929A0084E4F7
S1135C0090E09093F8028093F70256985798109278
S1135C10CB0210924602539A549A579A80B78860DE
S1135C2080BF8BE083BF86EE81BF87B7826087BF6A
S1135C300E94C3090E94232C8823E1F78F2D992702
S1135C408FBF78940E9476228FB7F894482F5527F7
S1135C504BC087B7992783709070892B19F4E5E0BE
S1135C60F0E013C080B7992787709070892BD1F723
S1135C7081B792B7891B8C3030F082B7853F18F416
S1135C80E3E0F0E002C0E2E0F0E087B7887BC1F433
S1135C9080917D008B7FA1F46E9912C08AB190919E
S1135CA09A00892B887161F48091740082FD08C088
S1135CB0379B03C081E090E005C085E090E002C01E
S1135CC080E090E025B78E1708F4E82FFF27EA510B
S1135CD0FF4FE491237E2062E22BE5BF7894889500
S1135CE0F89485B78F7D85BF80915B038F3F09F45E
